:02000002D0002C
:1040000000400D00EC510D00000006000C00050101
:084010000401DB0700000000C1
:04401800944F0D00B4
:10401C0009480A49884208B505D0094A824202D0AB
:10402C00121A00F065FF0748074A0021121A00F027
:10403C006DFF014808BD00BFD0E5032054510D00B1
:10404C0040E6032040E60320F0E7032070B5074E5E
:10405C00074C00F05BFEA41BA4080025A54200D170
:10406C0070BD56F8043B98470135F7E730510D0009
:10407C0050510D0000F014B808B500F03FF8BDE841
:10408C00084000F005BE00F01DBA00F023BA00781D
:10409C00B0FA80F0400970470123037070470000AC
:1040AC0073B5124D124E2888012100F09FFE00249A
:1040BC003088012100F09AFE012322460D490E485A
:1040CC00CDE9004400F09EF900F058FD4FF4165174
:1040DC0000F048FD3088214600F099FE28882146E2
:1040EC0002B0BDE8704000F092BE00BFD4E50320E2
:1040FC00D0E503206D410D00A84F0D007047000066
:10410C002DE9F041DFF85480124F0446032500F0EE
:10411C0035FD0368104EDB681522414698473888F8
:10412C00012100F074FE0121308800F070FE204661
:10413C0000F0E0F93888002100F069FE3088002199
:10414C0000F065FE204600F0D5F9013DDFD1BDE859
:10415C00F08100BFD0E50320D4E50320B54F0D005E
:10416C0010B50C4620460B4900F0FCFE48B94FF444
:10417C00FA70FFF7C5FF4FF4FA70BDE81040FFF777
:10418C00BFBF0549204600F0EDFE10B94FF47A7020
:10419C00F3E710BDCB4F0D00CF4F0D0008B5024B10
:1041AC001B685B6C019308BD4802030008B5024B09
:1041BC001B689B6C019308BD4802030008B5024BB9
:1041CC001B685B68019308BD1802030008B5024B1D
:1041DC001B685B69019308BD1802030008B5024B0C
:1041EC001B689B68019308BD2C02030008B5024BA9
:1041FC001B68DB68019308BD2C02030008B5024B59
:10420C001B681B69019308BD2C02030008B5024B07
:10421C001B681B6A019308BD2802030008B5024BFA
:10422C001B685B6A019308BD2802030008B5024BAA
:10423C001B689B6A019308BD2802030008B5024B5A
:10424C001B68DB6A019308BD2802030008B5024B0A
:10425C001B681B6B019308BD2802030008B5024BB9
:10426C001B685B6B019308BD2802030008B5024B69
:10427C001B681B6C019308BD2802030008B5024B98
:10428C001B685B69019308BD6402030008B5024B0F
:10429C001B689B68019308BD6802030008B5024BBC
:1042AC001B68DB68019308BD6802030008B5024B6C
:1042BC001B68DB69019308BD3002030008B5024B93
:1042CC001B681B6A019308BD3002030008B5024B42
:1042DC001B681B68019308BD3C02030008B5024B28
:1042EC001B68DB68019308BD3C02030008B5024B58
:1042FC001B681B69019308BD3C02030008B5024B07
:10430C001B685B69019308BD3C02030008B5024BB6
:10431C001B689B69019308BD3C02030008B5024B66
:10432C001B68DB69019308BD3C02030008B5024B16
:10433C001B681B6A019308BD3C02030008B5024BC5
:10434C001B689B6A019308BD3C02030008B5024B35
:10435C001B681B68019308BD4C02030008B5024B97
:10436C001B685B68019308BD4C02030008B5024B47
:10437C001B681B69019308BD4C02030008B5024B76
:10438C001B685B69019308BD4C02030008B5024B26
:10439C001B689B69019308BD4C02030008B5024BD6
:1043AC001B68DB69019308BD4C02030008B5024B86
:1043BC001B681B6A019308BD4C02030008B5024B35
:1043CC001B685B68019308BD2002030008B5024B13
:1043DC001B685B69019308BD2002030008B5034B01
:1043EC001B68D3F88830019308BD0000200203003D
:1043FC0008B5034B1B68D3F89430019308BD00003B
:10440C002002030008B5024B1B685B6A019308BDD0
:10441C004402030008B5024B1B68DB6B019308BD1B
:10442C004402030008B5024B1B685B68019308BD8E
:10443C004002030008B5024B1B689B68019308BD42
:10444C004002030008B5024B1B68DB68019308BDF2
:10445C004002030008B5024B1B681B69019308BDA1
:10446C004002030008B5024B1B685B69019308BD51
:10447C004002030008B5024B1B689B69019308BD01
:10448C004002030008B5024B1B68DB69019308BDB1
:10449C004002030008B5024B1B681B6A019308BD60
:1044AC004002030008B5024B1B681B6B019308BD4F
:1044BC004002030008B5024B1B685B6B019308BDFF
:1044CC004002030008B5024B1B681B68019308BD32
:1044DC001C02030008B5024B1B685B68019308BD06
:1044EC001C02030008B5024B1B685B6C019308BDF2
:1044FC001C0203000021FFF769BF10B504460068D9
:10450C0008B1FFF753FE204610BD000010B5064C55
:10451C00002320462360FFF741FE2046034A04494E
:10452C00BDE8104000F0CCBC44E6032040E603207C
:10453C0007450D0010B58368044613B103220146EC
:10454C009847204610BD002240681146FFF7A2BFD5
:10455C00002240681146FFF7ADBF40680022FFF70C
:10456C00A1BF4068002281F00101FFF78BBF00233F
:10457C0040681A461946FFF77DBF002340681A466B
:10458C001946FFF76FBF002240681146FFF762BF64
:10459C00002240681146FFF74DBF406800220221FF
:1045AC00FFF750BF002340681A46FFF73BBF0000DF
:1045BC00024B03225A60024A1A60704748E60320F5
:1045CC00DC4F0D007047F8B5064615460C468F18A3
:1045DC00BC4206D0336814F8011B9B6830469847E0
:1045EC00F6E72846F8BD007C0022FFF70FBE007CE2
:1045FC000021FFF713BE007C0021FFF717BE007CE3
:10460C000021FFF71BBE007C0021FFF71FBE10B579
:10461C001421044600F059FC204610BD10B54FF48F
:10462C007A73044608460021C4E90113034B236046
:10463C0020741146FFF71AFE204610BD10500D00D5
:10464C00704710B51821044600F03FFC204610BD01
:10465C00F0B5037D062B8DB00E4600F104074FF02C
:10466C00000412D000F1080515F8011D0A2230468D
:10467C0000F033F9AF42044419D0002CF4D02E21B1
:10468C00304600F027F90444EEE72F236A463946FA
:10469C000A208DF80040FFF7F1FD684600F06CFC35
:1046AC0033680246DB686946304698470446204624
:1046BC000DB0F0BD10B5054B0446112240F8043B7B
:1046CC00002100F023FC204610BD00BF38500D0027
:1046DC000346074A10B543F8042B01F1100251F8B8
:1046EC00044B43F8044B9142F9D10A781A7010BD6F
:1046FC0038500D0010B59DF8084044EA032343EAF6
:10470C00024242EA016104234160037510BD13B5F6
:10471C00CB7800938B784A780978FFF7EBFF02B0DF
:10472C0010BD0000014B024A1A60704750E603208E
:10473C0044500D00002340681A46FFF773BE4068D2
:10474C0000220221FFF77EBE002240681146FFF7CF
:10475C0071BE002240681146FFF77CBE0023406802
:10476C001A461946FFF77EBE002340681A461946C2
:10477C00FFF780BE4068002281F00101FFF782BE86
:10478C0040680022FFF78EBE002240681146FFF7FA
:10479C0091BE002240681146FFF77CBE2DE9F04324
:1047AC00002495B016460D460746FFF783FF2146B9
:1047BC0018220EA8009400F0A9FB4023CDE90C347C
:1047CC0021466B460CAA3046FFF768FD04460028CC
:1047DC0046D1024601216868FFF73CFE0221804663
:1047EC0022466868FFF736FE009E81462146002E61
:1047FC0036D0002934D17368022B03D00A2B0BD08E
:10480C00F669F4E7B8F1000F04D071693846043149
:10481C00FFF77DFF4146F3E7B9F1000F01D149469F
:10482C00EEE77469102201A800F070FB06238DF8E6
:10483C00143001AD04F108031834186859682A467D
:10484C0003C20833A3421546F7D101A906A807AD48
:10485C00FFF73EFF0FCD3C1D0FC42B682370DEE726
:10486C000098FFF713FD384615B0BDE8F083000043
:10487C00024B034A1A6000225A60704754E6032028
:10488C0050500D00F8B506460D468F180024BD4259
:10489C000CD0336815F8011B9B6830469847031EF3
:1048AC0001DB1C44F3E7002C08BF1C462046F8BD76
:1048BC0013B50446084659B1019100F05DFB23681D
:1048CC000199DB680246204602B0BDE8104018474B
:1048DC0002B010BD03689B68184730B58BB000233D
:1048EC008DF82430012A98BF0A2209AC0D46B1FB81
:1048FC00F2F101FB125303F0FF03092B94BF303389
:10490C003733DBB2AA4204F8013DEFD92146FFF759
:10491C00CFFF0BB030BD10B50446FFF70BFE2046A1
:10492C0010BD00000348044A04490023836000F0D2
:10493C00C7BA00BF5CE6032040E6032023490D0004
:10494C0010B5044608462170FFF7B0FC00236360E5
:10495C00204610BD10B50446006818B1FFF7BAFD2B
:10496C000023236010BD10B50446FFF7F3FF20466B
:10497C0010BD000010B5094B094C022200201A6032
:10498C00084B2060A080A071A360FFF717FD2046A4
:10499C00054A0649BDE8104000F092BA78E60320BB
:1049AC006CE603200000FFFF40E6032073490D0076
:1049BC00024B1A68024B1A60704700BFD8E50320FF
:1049CC007CE6032070474174704708B5007CFFF704
:1049DC00B5FC20EAE07008BD08B5007CFFF786FC4A
:1049EC0020EAE07008BD08B5007CFFF78FFC40EAB8
:1049FC00E07008BD08B5007CFFF780FC40EAE07071
:104A0C0008BD007CFFF78ABC37B5457C04462DB148
:104A1C00207C03B0BDE83040FFF760BC007C019106
:104A2C00FFF78CFC00280199F2DC284603B030BD5E
:104A3C0010B51421044600F048FA204610BD0000C1
:104A4C0010B54FF0000C0446084611464FF47A722C
:104A5C00C4E901C2044A22600122207462741A461D
:104A6C00FFF734FC204610BDA0500D0013B50E4CC2
:104A7C002178BFF35B8F11F0010112D12046019117
:104A8C00FFF705FB019960B1084A094B0948FFF78C
:104A9C00D7FF2046FFF700FB074A0849054800F0FE
:104AAC000FFA044802B010BD80E6032084E6032010
:104ABC0008E703208CE7032040E60320D1490D00D2
:104ACC0041747047704708B50021007CFFF75EFC0D
:104ADC0040EAE07008BD08B50121007CFFF756FCE8
:104AEC0040EAE07008BD08B5007CFFF747FC20EAFF
:104AFC00E07008BD08B5007CFFF738FC20EAE070D8
:104B0C0008BD13B50446007C0191FFF737FC002863
:104B1C00019901DC607C20B1207CFFF73FFC20EA8E
:104B2C00E07002B010BD007CFFF740BC10B5142142
:104B3C00044600F0CAF9204610BD000010B54FF431
:104B4C007A73044608460021C4E90113044B236020
:104B5C000123207463741146FFF7F8FB204610BD47
:104B6C00D0500D00007C0022FFF7F8BB10B51422CA
:104B7C000446002100F0CAF9204610BD10B5104CB7
:104B8C0088B003A8FFF7F2FF2178BFF35B8F11F019
:104B9C00010111D120460191FFF779FA019958B121
:104BAC0003AA0848FFF7CAFF2046FFF775FA064A22
:104BBC000649044800F084F9024808B010BD00BF53
:104BCC00A0E70320A4E7032040E60320D14A0D0010
:104BDC00002240681146FFF73DBC00224068114698
:104BEC00FFF758BC002240681146FFF763BC4068D1
:104BFC000022FFF757BC4068002281F00101FFF74B
:104C0C0041BC002340681A461946FFF733BC002309
:104C1C0040681A461946FFF725BC00224068114629
:104C2C00FFF708BC406800220221FFF70BBC0023F1
:104C3C0040681A46FFF7F6BB024B04225A60024A40
:104C4C001A607047B8E7032000510D00014B186043
:104C5C00704700BFDCE5032008B50B4B43B1FFF7F1
:104C6C008DFF03681B699847002801DDAFF30080B6
:104C7C00064B43B1FFF7FAFE03681B6998470028FF
:104C8C0001DDAFF3008008BD000000000000000053
:104C9C0008B5FFF7E1FFFFF799FA014B186008BD63
:104CAC00D4E703200248034A0349121A00F020B942
:104CBC0000F4032004F4032050510D0007B5002329
:104CCC0000931A466FF07701FFF792FB03B05DF883
:104CDC0004FB000007B543880A2B08D0502B0BD1DE
:104CEC00094B1B684BB103B05DF804EB1847FFF799
:104CFC00E5FF03B05DF804FB002300931A466FF048
:104D0C007701FFF775FBF4E7C4E7032038B5124CC5
:104D1C001248134D0021FFF7E5FB2368AB42114B02
:104D2C000CBF012200221A7002D0FFF7BBFF2560D6
:104D3C00FFF744FA044600F0F1F80B4B13B1204690
:104D4C00AFF3008000210848FFF764FBBDE8384052
:104D5C0006480021FFF742BB00F40320594C0D001C
:104D6C001E1C279AC0E7032000000000E14C0D0038
:104D7C00232813B502D9002002B010BDA0F10B03FB
:104D8C00022B1AD8174C2178BFF35B8F11F001015D
:104D9C000BD120460191FFF77AF9019928B11248FD
:104DAC00FFF7CEFD2046FFF777F90F4B1878FFF78A
:104DBC0085FA0028DFD10120DEE7012809D800F0B0
:104DCC0057F80021007CFFF749FA80F00100C0B2CF
:104DDC00D2E709380128EED8FFF748FE007CFFF730
:104DEC00A5FAF2E7C8E70320CCE70320232838B55F
:104DFC0004460D460AD8FF2908D0FFF7B9FF28B1A1
:104E0C0029462046BDE83840FFF7E8B938BD38B52B
:104E1C0004460D46FFF7EAF9FF2810D0062804D8FF
:104E2C004D2323FA00F0C30709D42046FFF7A0FF57
:104E3C0028B129462046BDE83840FFF7DFB938BD18
:104E4C0038B5002320254380142304460380856055
:104E5C0005610649284600F03AF804496060284686
:104E6C0000F035F8E060204638BD00BF2C510D0035
:104E7C0030B50F4D2978BFF35B8F11F0010487B06B
:104E8C0013D12846FFF703F978B101A8FFF7D8FF33
:104E9C0001AA21460748FFF7C1FB2846FFF7FCF89B
:104EAC00054A0649034800F00BF8024807B030BD2C
:104EBC00D8E70320DCE7032040E60320D1450D00B2
:104ECC000B460146184600F005B8FFF7DEB8FFF7B1
:104EDC00DAB8000010B5054C13462CB10A46014651
:104EEC000220AFF3008010BD2046FCE7000000005C
:104EFC000A44914200F1FF3300D1704710B511F80C
:104F0C00014B03F8014F9142F9D110BD0244034605
:104F1C00934200D1704703F8011BF9E738B50D4BEC
:104F2C001D68AB6B04467BB91820FFF7CBFA0A4A15
:104F3C000A4BA863C0E90023094B83600B238381D0
:104F4C0001220023C0E90423AB6B00221C615A61CF
:104F5C0038BD00BFDCE503200E33CDAB34126DE65B
:104F6C00ECDE050010F8012B11F8013B012A28BFDB
:104F7C009A42F7D0D01A7047034613F8012B002A37
:104F8C00FBD1181A013870471D400D0059400D0017
:104F9C0081400D0085400D000000000050686F74CA
:104FAC006F6E5F4275646479004C4544206E6F7778
:104FBC00207475726E696E67206F6E200A20007007
:104FCC00617400776176650000000000000000004D
:104FDC00B1450D00A7450D009D450D0093450D00F5
:104FEC0087450D007B450D006F450D0067450D0095
:104FFC005D450D0053450D00A9470D000000000054
:10500C0000000000D1450D001B460D00F3450D00BE
:10501C00D3450D00FB450D0003460D000B460D005E
:10502C0013460D0000000000000000005D460D005E
:10503C004D460D004F460D006170700000000000E1
:10504C000000000041470D004B470D0055470D0077
:10505C005F470D0069470D0075470D0081470D0036
:10506C008D470D0095470D009F470D00A9470D007A
:10507C0025592D256D2D25645425483A254D3A2565
:10508C0053257A0061736374696D6500000000003C
:10509C0000000000D1490D003D4A0D00154A0D00DD
:1050AC0091480D00E5490D00014A0D00F3490D0032
:1050BC000F4A0D00D3490D00D7490D000000000028
:1050CC0000000000D14A0D00394B0D000F4B0D00B4
:1050DC0091480D00014B0D00D34A0D00E34A0D0021
:1050EC00334B0D00F34A0D00CD4A0D0000000000BB
:1050FC00000000003B4C0D00314C0D00274C0D0006
:10510C00DD4B0D001B4C0D000F4C0D00034C0D0026
:10511C00FB4B0D00F14B0D00E74B0D00A9470D00AB
:10512C000000000019450D00BD450D0031470D0074
:10513C007D480D0031490D0081490D00BD490D0020
:04514C00454C0D00C1
:04515000000000005B
:10515400070000000300000090500D00E0E503206C
:10516400000000000000000000000000000000003B
:10517400000000000000000000000000000000002B
:10518400000000000000000000000000000000001B
:10519400000000000000000000000000000000000B
:1051A40000000000000000000000000000000000FB
:1051B40000000000000000000000000000000000EB
:1051C400FFFFFFFF00000102030405060708090AA8
:1051D4000B0C0D0E0F101112131415161718191AA3
:0851E4001B1C1D1E1F202800EA
:0451EC0078563412AB
:04000003D000401CCD
:00000001FF
